:020000040800F2
:1000000000E001209D01000875330008C32C0008A2
:1000100071330008BD070008493B000800000000DC
:100020000000000000000000000000001334000881
:10003000C107000800000000113400081534000852
:10004000B7010008B7010008B7010008B7010008B0
:10005000B7010008B7010008B7010008B7010008A0
:10006000B7010008B7010008B7010008B701000890
:10007000B7010008B7010008B7010008B701000880
:10008000B7010008B7010008B7010008B701000870
:10009000B7010008B7010008B7010008790B000894
:1000A000B7010008B7010008B7010008B701000850
:1000B000B7010008B701000811350008B7010008B2
:1000C000B7010008B7010008B7010008B701000830
:1000D000B7010008B7010008393B0008B701000864
:1000E0005D0B0008B7010008B7010008B701000860
:1000F000B7010008B7010008B7010008B701000800
:10010000B7010008B7010008B7010008B7010008EF
:10011000B7010008B7010008B7010008B7010008DF
:10012000B7010008B7010008B7010008B7010008CF
:10013000B7010008B7010008B7010008B7010008BF
:10014000B7010008B7010008B7010008B7010008AF
:10015000B7010008B7010008B7010008B70100089F
:10016000B7010008B7010008B7010008B70100088F
:10017000B7010008B7010008B7010008000000003F
:10018000B7010008B7010008DFF80CD000F004FB4D
:1001900000480047CDB2000800E001200648804733
:1001A00006480047FEE7FEE7FEE7FEE7FEE7FEE75C
:1001B000FEE7FEE7FEE7FEE7FD34000889010008E0
:1001C0002DE9F05F0546002092469B46884606468C
:1001D000814640241BE0284641464746224600F01F
:1001E000B9F953465A46C01A914110D311461846E0
:1001F000224600F0A0F92D1A67EB01084F4622466F
:100200000120002100F097F917EB00094E41201E54
:10021000A4F10104DFDC484631462A464346BDE8E6
:10022000F09F2DE9F0410024061B254671F10006E0
:1002300005DA01240027D0EB070067EB0101161E49
:1002400073F1000605DA0027D2EB0702012567EB00
:100250000303FFF7B5FF86460E4617469C46AC42A1
:1002600004D00025D0EB050E65EB010624B100207B
:10027000D2EB000760EB030C704631463A4663460A
:10028000BDE8F08140EA01039B0703D009E008C9FB
:10029000121F08C0042AFAD203E011F8013B00F84B
:1002A000013B521EF9D27047D2B201E000F8012B97
:1002B000491EFBD270470022F6E710B513460A46E6
:1002C00004461946FFF7F0FF204610BD034611F81B
:1002D000012B00F8012B002AF9D1184670472DE9AF
:1002E000FE4F804681EA0300C00F0C46009021F0CB
:1002F000004123F00045B8EB0200A94105D2404679
:10030000214690461C460B46024623F0004010430F
:1003100047D0270DC7F30A00C3F30A510290401AD1
:10032000019040286BDAC3F3130040F4801B00985F
:10033000924620B10023D2EB030A63EB0B0B01982A
:100340005946C0F14002504600F0F5F806460D4609
:1003500050465946019A00F00DF910EB0800614132
:10036000002487EA115284EAE7731A4340D0009AC6
:1003700062B3019A012A4FEA075215DC001B61EBB8
:1003800002014FF0004202EA0752CDE90042001C90
:1003900041F5801132462B4600F00DF903B0BDE85F
:1003A000F08F40462146F9E7001B61EB0201001C7B
:1003B00041F5801300185B412018A2F5001747EBA8
:1003C000030140EAD570B6196D4111E06D084FEA9E
:1003D000360645EAC0754FEA0752001B61EB020181
:1003E000001C41F5801149084FEA300000195141C5
:1003F00032462B4603B0BDE8F04F00F0CDB8009870
:10040000012240000023D0EB020263EBE07300986E
:1004100021464FEAE074B8EB000061EB0401E9E724
:1004200083F000435BE781F0004158E72DE9F04D90
:1004300081EA030404F0004B21F0004514464FF01C
:10044000000A23F0004150EA050220D054EA0102DC
:100450001DD0C5F30A570246C5F31303C1F31300B9
:10046000C1F30A5640F4801543F48013A7EB060845
:10047000101BD64608F2FD3873EB050002D308F1D5
:10048000010801E092185B41B8F1000F03DA002087
:100490000146BDE8F08D00204FF4801106468446E9
:1004A0000EE0171B73EB050705D3121B63EB050367
:1004B00006434CEA010C49084FEA300092185B41B0
:1004C00050EA0107EDD152EA030012D082EA04009B
:1004D00083EA0501084305D0101BAB4106D2012277
:1004E000002306E000224FF0004302E06FF001021B
:1004F00053101AEB06004CEB085110EB0A0041EBCD
:100500000B01BDE8F04D00F047B830B50B46014691
:1005100000202022012409E021FA02F59D4205D3A2
:1005200003FA02F5491B04FA02F52844151EA2F14C
:100530000102F1DC30BD202A04DB203A00FA02F18E
:10054000002070479140C2F1200320FA03F31943C1
:1005500090407047202A04DB203A21FA02F0002163
:10056000704721FA02F3D040C2F1200291400843C3
:1005700019467047202A06DBCB17203A41FA02F0D1
:1005800043EAE07306E041FA02F3D040C2F12002F0
:10059000914008431946704710B5141E73F10004CA
:1005A00008DA401C41F1000192185B411A4301D165
:1005B00020F0010010BD2DE9F04D92469B4611B18F
:1005C000B1FA81F202E0B0FA80F220329046FFF7F1
:1005D000B2FF04460F4640EA0A0041EA0B015346C7
:1005E0005A46084313D0114653EA010019D0C8F106
:1005F00040025046FFF7AEFF05460E4650465946AC
:100600004246FFF798FF084305D0012004E020464A
:100610003946BDE8F08D0020054346EAE0762C43DC
:1006200037430A986305E40AA0EB08000022FD0A9C
:1006300044EA47540A3002D500200146E9E70105A3
:1006400010196941DDE9084500196941BDE8F04D1F
:10065000A2E72DE9FE4F81EA030404F0004421F0F3
:10066000004100944FF0000B23F0004350EA0104D6
:100670005ED052EA03045BD0C3F30A54C1F30A55B7
:100680002C44A4F2F3340194A0FB0254C1F31301EF
:1006900041F48011C3F3130343F4801301FB0244BC
:1006A00000FB034E840A970A44EA815447EA8357C1
:1006B000A4FB076802958D0A05FB07854FEA932C7A
:1006C00004FB0C542705029D4FEA065847EA1637EB
:1006D000B5EB08056EEB070C870E920E47EA811703
:1006E00042EA8312A7FB0201B6EB0B0164EB0004A4
:1006F0002B0D43EA0C335E1844EB1C50DA4651468E
:10070000E7FB0201C5F313044FEA0B3343EA14532A
:100710004FEA0432019C43EA0603A4F10C0402945C
:10072000009CCDE900B4FFF746FF03B0BDE8F08FB1
:1007300000200146F9E7C1F30A52C1F3130140F268
:10074000FF3341F480119A4202DA002001467047DB
:1007500040F233439A42A2F2334202DC5242FFF7A4
:10076000F9BEFFF7E8BE000030B5041E71F10004C9
:1007700004DB4FF00044404264EB0101141E73F1AE
:10078000000405DB1C464FF00043524263EB0403B8
:10079000994208BF904230BD064C074D06E0E06824
:1007A00040F0010394E8070098471034AC42F6D3B8
:1007B000FFF7EEFC9CBF0008CCBF000800BFFEE7BF
:1007C0007047016801F58051896941F002020168B2
:1007D00001F580518A617047016801F5805189698E
:1007E00041F40052016801F580518A6170470000B0
:1007F00008B508490968C9084FF47A72B1FBF2F1EB
:100800004143009100BF00BF00994A1E0092002999
:10081000F9D108BD1800002038B50446002000902A
:10082000206800F58050806940F48011206800F550
:1008300080508161206800F580508069009001201F
:10084000FFF7D6FF0099206800F58050816138BD20
:1008500030B503461479557944EA0520084C0C4418
:100860002064D4782406957844EA0544557844EA0F
:100870000524157844EA0500014C0C44606430BD41
:100880000080024070B5AEB004460E46002526B189
:100890004FF40061E160C900A16000201190129046
:1008A0001390149015901690E06918B94FF4806079
:1008B000179001E0002017904FF40070189000206E
:1008C00019901A901B901C901D9040201E900020A3
:1008D0001F90209021902290239024902590269084
:1008E000802027900020289029902A902B902C90EF
:1008F0002D902068056871480540DDE91101084325
:100900001399084314990843A168084315990843AB
:1009100016990843E1680843179908431899084352
:10092000199908431A9908431B99084305432068FD
:10093000056020680568012000F09CF920680560CA
:10094000DDE91C0108431E9908431F9908432099BB
:1009500008432199084322990843239908432168B1
:10096000486020684568012000F084F920684560EF
:1009700024982168886025982168C8602068856966
:100980004FF641700540DDE9261040EA0140289904
:100990000843299908432A9908432B99084305439A
:1009A0002068856120688569012000F063F920686E
:1009B0008561DDE92C0108432168C8612068C569AB
:1009C000012000F057F92068C561002001904FF028
:1009D00000700290002003904FF40010049000205B
:1009E000059006900790089004200990C0050A9091
:1009F00040120B9080010C9040120D9080200E90C0
:100A000000200F901090206800F5805085692C48D8
:100A10000540DDE9010108430399084304990843AF
:100A2000059908430699084307990843089908431C
:100A3000099908430543206800F5805085612068C6
:100A400000F580508569012000F014F9206800F558
:100A500080508561DDE90A0108430C9908430D992E
:100A600008430E9908430F9940EA81001099084302
:100A700040F40001206800F580500160206800F516
:100A800080500568012000F0F5F8206800F58050DE
:100A90000560A069012809D1206800F58050C0696F
:100AA00008490843216801F58051C86100212046AA
:100AB0006269FFF7CDFE2EB070BD00000F8120FFF0
:100AC000233FDEF84000010038B5044600200090C6
:100AD0002068006840F00400216808602068006811
:100AE00000900120FFF784FE00982168086038BD5F
:100AF00038B50446002000902068006840F00800E7
:100B0000216808602068006800900120FFF770FEEF
:100B100000982168086038BD70B504460D462A4625
:100B20002146044800F046FC10B14FF0FF3070BD84
:100B30000020FCE76C42002070B504460D462E46AE
:100B400032462146044800F046FD10B14FF0FF3018
:100B500070BD0020FCE700006C42002010B54FF48F
:100B6000806000F0B9FD4FF4805000F0B5FD4FF407
:100B7000004000F0B1FD10BD10B54FF4807000F0E2
:100B8000ABFD10BD72B600BFFEE700000148006873
:100B900070470000240400404FF08040406A7047D6
:100BA00070B50446A56D00F0B5FE064694F8350014
:100BB000022808D08020606500BF002084F834003F
:100BC00000BF012070BD2068006820F01600216879
:100BD00008602068406920F0800021684861206C2E
:100BE00008B9A06C28B12068006820F008002168CE
:100BF00008602068006820F00100216808600FE0AC
:100C000000F088FE801B05280AD92020606500BFFF
:100C1000002084F8340000BF032084F83500D1E7B9
:100C20002068006800F001000028E9D194F85C1009
:100C30003F208840A86000BF002084F8340000BF37
:100C4000012084F835000020BCE7014691F835000A
:100C5000022803D08020486501207047052081F8D4
:100C600035000868006820F001000A681060002064
:100C7000F3E7000070B5044600F04CFE064625463A
:100C8000681C10B104480078054400BF00F042FE23
:100C9000801BA842FAD370BD1400002070B5054631
:100CA0000C46002600BF95F84500012801D102201E
:100CB00070BD012085F8450000BF022085F8440082
:100CC000002C6DD02868066843480640D4E900012E
:100CD0000843A1680843E1680843A96808432169FB
:100CE000084361690843E9680843A1690843E16969
:100CF0000843216A0843616A0843A16A084306431E
:100D000028680660286806680120FFF7B3FF286896
:100D10000660D4E90B010843616B0843A16B0843EB
:100D2000E16B0843216C0843616C0843A16C0843E4
:100D300029684860286846680120FFF79BFF2868FB
:100D40004660E06C29688860206D2968C860286862
:100D500086694FF641700640B4F85410A06D40EA21
:100D60000140E16D0843216E0843616E0843A16EA6
:100D70000843064328688661286886690120FFF7D2
:100D800079FF28688661D4E91B0108432968C86196
:100D90002868C6690120FFF76DFF2868C66110E06A
:100DA0002868066826F49046D5E902010843064300
:100DB00028680660286806680120FFF75BFF28683E
:100DC0000660012085F8440000BF002085F845003A
:100DD00000BF00BF6CE700000F8120FF70B5044624
:100DE0000D461646002200BF94F84500012801D1A7
:100DF000022070BD012084F8450000BF022084F865
:100E00004400A56200221FE005EB42114FF00040B4
:100E1000086044F2F4504860C2EBC21000EB40009E
:100E200006EB80008860A069012803D1486820F0A3
:100E300000404860581E904204D905EB4210203013
:100E4000C86000E0CD60521C9A42DDD3206800F5F6
:100E50008050C560012084F8440000BF002084F861
:100E6000450000BF00BFC4E770B504460D461646F6
:100E7000002200BF94F84500012801D1022070BD76
:100E8000012084F8450000BF022084F84400E56298
:100E900000221BE005EB42114FF480100860C2EB0A
:100EA000C21000EB400006EB80008860E06918B9D2
:100EB000086840F440000860581E904204D905EBD1
:100EC00042102030C86000E0CD60521C9A42E1D34D
:100ED000206800F580500561012084F8440000BFBF
:100EE000002084F8450000BF00BFC8E7014600228B
:100EF00000BF91F84500012801D102207047012070
:100F000081F8450000BF022081F84400886A00682B
:100F100000F00040002838D1886A006800F4807032
:100F2000F0B1886B401C8863886B012801D1886A06
:100F300008638B6A4B63886A0068C0F30D40021F28
:100F4000CA63086B83680B64886AC0688862012082
:100F500081F8440000BF002081F8450000BFCDE7C4
:100F6000886A006800F4007048B1886A086300234A
:100F70004B6301238B63886AC068886205E0886BD5
:100F8000401C8863886AC0688862012081F8440038
:100F900000BF002081F8450000BF0120AEE700003F
:100FA0002DE9FC4104460025002001909D4E0027BC
:100FB000804614B90120BDE8FC8194F8440028B9AA
:100FC000002084F84500204600F03AF900BF0020D8
:100FD00000909548006840F48040934908600846B6
:100FE000006800F48040009000BF00BF8F48006898
:100FF00020F400008D49086008460068216A084313
:101000008A490860206800F58050006840F00101BE
:10101000206800F58050016000F07CFC07460FE07E
:1010200000F078FCC01BB0F5FA7F09D9032084F8E2
:10103000440000BF002084F8450000BF0320BAE749
:10104000206800F58050006800F001000028E7D11A
:101050002068056925F01C0500F000FE064674486E
:10106000864205D37348864202D245F008051AE04D
:101070007048864205D36B48864202D245F00C0583
:1010800011E06848864203D36B48864200D20AE0EA
:101090006948864205D36948864202D245F0040574
:1010A00001E045F01005206805614FF40042002181
:1010B000204600F090FA48B14FF001084146204622
:1010C000FFF7E0FB012084F8440074E7FF20FFF7FE
:1010D000D1FD6068002871D000F01CFC074600BFFD
:1010E00001AA0121204600F065F900F013FCC01BA5
:1010F00041F2883188420FD94FF00108414620461D
:10110000FFF7C0FB012084F8440000BF002084F8F2
:10111000450000BF03204EE7019800F004000428BA
:10112000DED182020021204600F055FA48B14FF08E
:10113000010841462046FFF7A5FB012084F8440042
:1011400039E700F0E7FB074600BF01AA012120466E
:1011500000F030F900F0DEFBC01B41F2883188421C
:101160000FD94FF0010841462046FFF78BFB0120C5
:1011700084F8440000BF002084F8450000BF03202D
:1011800019E7019800F020002028DED101AA1021E3
:10119000204600F00FF948B14FF0010841462046C3
:1011A000FFF770FB012084F8440004E7019800F089
:1011B000040020B14FF40061E16002E00DE0002185
:1011C000E160019800F00200022802D10021A16034
:1011D0001EE04FF48041A1601AE0E068C0F3CF0048
:1011E000A168C1F34F0140EA01020021204600F04E
:1011F000F2F948B14FF0010841462046FFF742FBA3
:10120000012084F84400D6E640F6FF70FFF732FD77
:1012100041462046FFF736FB012084F844000020B9
:10122000C9E60000008793034438024004380140B7
:10123000002D3101C00E160200E1F50580D1F00845
:1012400010B586B0044600BF0020009054480068E6
:1012500040F00100524908600846006800F00100B3
:10126000009000BF00BF00BF00200090084600684B
:1012700040F0040008600846006800F00400009098
:1012800000BF00BF00BF002000900846006840F08B
:10129000020008600846006800F00200009000BFED
:1012A00000BF00BF002000900846006840F04000EA
:1012B00008600846006800F04000009000BF00BFD2
:1012C00000BF00BF002000900846006840F000709A
:1012D00008600846006800F00070009000BF00BF82
:1012E00000BF002000900846006840F08060086061
:1012F0000846006800F08060009000BF00BF00BF9B
:10130000002000900846006840F000600860084631
:10131000006800F00060009000BF00BF00BF012225
:101320000421204800F0F0FA0420019001200290EE
:1013300000200390022004900020059001A9194884
:1013400000F0D8F932200190022002900020039092
:10135000032004900B20059001A9134800F0CAF95E
:101360008620019002200290002003900320049028
:101370000B20059001A90D4800F0BCF94FF4D040B6
:1013800001900220029000200390032004900B2083
:10139000059001A9064800F0ADF906B010BD0000A7
:1013A00030380240000402400008024000000240C1
:1013B000001802402DE9F04104460E46174600256C
:1013C000A84694F84400822802D10220BDE8F081AA
:1013D000822084F844002068056905F01C05208AF5
:1013E0004FF4784101EAC0200543481100EA861015
:1013F000054325F0020545F001052068056100F070
:1014000089FA804612E000F085FAA0EB0800B0F5FA
:10141000803F09D3012084F8440000BF002084F8F5
:10142000450000BF0320D1E72068056905F00100F1
:101430000028E8D12068406980B23860012084F833
:1014400044000020C2E710B5044600BF94F84500F0
:10145000012801D1022010BD012084F8450000BF01
:10146000022084F844002046FFF742FB2046FFF7A5
:101470002BFB2046FFF7D0F92046FFF7ADF92046B9
:10148000FFF79FF9012084F8440000BF002084F892
:10149000450000BF00BFDEE770B50246002300250F
:1014A000002400BF92F84500012801D1022070BD40
:1014B000012082F8450000BF022082F8440049B9AB
:1014C000012082F8440000BF002082F8450000BFE0
:1014D0000120ECE7D06A006800F0004048B112201B
:1014E00082F8440000BF002082F8450000BF0120C0
:1014F000DDE740F2F450814208D9B1FBF0F3B1FBD3
:10150000F0F600FB161010B15B1C00E00123012B6C
:1015100013D1D06A006840F04050D66A3060C1F301
:101520000C00D66A7060D06A006840F00040D66A4D
:101530003060D06AC068D06232E000242EE0D06A09
:10154000006820F04050D66A30602CB9D06A00683C
:1015500040F08050D66A306040F2F450D66A706035
:10156000581EA04210D1D06A006840F00050D66AE0
:101570003060581EC0EBC01000EB4000A1EB8005AE
:10158000C5F30C00D66A7060D06A006840F0004075
:10159000D66A3060D06AC068D062641C9C42CED3E8
:1015A000106800F58050406900F0040048B104263E
:1015B000106800F5805046610026106800F58050E4
:1015C0004660012082F8440000BF002082F84500F8
:1015D00000BF00BF6BE72DE9F04104460E461746F9
:1015E0000025A84694F84400422802D10220BDE814
:1015F000F081422084F844002068056905F01C054C
:10160000208A4FF4784101EAC0200543481100EADE
:101610008610054345F0020545F00105B8B2216882
:1016200048612068056100F075F9804612E000F01D
:1016300071F9A0EB0800B0F5803F09D3012084F8D0
:10164000440000BF002084F8450000BF0320CEE71F
:101650002068056905F001000028E8D1012084F820
:1016600044000020C3E7000010B50446B4F5004F65
:1016700009D14FF40041174800F03EF948BB012062
:1016800002F094FF25E0B4F5805F09D14FF480515A
:10169000104800F031F9E0B9022002F087FF18E0AD
:1016A000B4F5806F09D14FF480610A4800F024F945
:1016B00078B9032002F07AFF0BE0B4F5807F08D1FF
:1016C0004FF48071034800F017F910B9042002F0BC
:1016D0006DFF10BD0018024010B5044604480068B4
:1016E000204020B1024804602046FFF7BDFF10BD36
:1016F000143C0140F8B502460B46002500240020AA
:101700000021DEE0012606FA01F51E6806EA05045E
:10171000AC4275D11E7906F00306012E04D01E7965
:1017200006F00306022E13D190684F000326BE4038
:10173000B0434F00DE68BE403043906050680126E1
:101740008E40B0431E79C6F300168E403043506081
:101750001E7906F00306032E09D0D0684F00032639
:10176000BE40B0434F009E68BE403043D0601E79FB
:1017700006F00306022E13D1CF0802F1200656F818
:1017800027004E07F70E0F26BE40B0434F07FF0E4F
:101790001E69BE403043CF0802F1200646F82700FC
:1017A00010684F000326BE40B0431E7906F00306C2
:1017B0004F00BE40304310605E6806F08056B6F1C0
:1017C000805F7DD100BF00260096404E366846F40B
:1017D00080463E4F3E603E46366806F480460096A0
:1017E00000BF00BF3A4E8F0856F827008E07370F0C
:1017F0000F26BE40B043374EB24202D1002624E04D
:101800005EE0354EB24201D101261EE0334EB242B7
:1018100001D1022619E0324EB24201D1032614E072
:10182000304EB24201D104260FE02F4EB24201D118
:1018300005260AE02D4EB24201D1062605E02C4EC7
:10184000B24201D1072600E008268F073F0FBE40B5
:1018500030431F4E8F0846F82700264E3068A043BD
:101860005E6806F48036B6F5803F00D12043214EF5
:101870003060361D3068A0435E6806F40036B6F569
:10188000003F00D120431B4E361D3060361D3068AE
:10189000A0435E6806F48016B6F5801F00D1204391
:1018A000144E08363060361D3068A0435E6806F47A
:1018B0000016B6F5001F00D120430E4E0C363060E6
:1018C000491C1029FFF41EAFF8BD00004438024047
:1018D00008380140000002400004024000080240B5
:1018E000000C0240001002400014024000180240A8
:1018F000001C0240003C0140024613690B400BB142
:10190000012000E0002070470AB1816101E00B0472
:101910008361704701480068704700000C00002098
:101920000348006803490978084401490860704782
:101930000C0000201400002010B50D48006840F491
:1019400000700B4908600846006840F48060086039
:101950000846006840F480700860032000F0A2F898
:101960000F2000F007F800F02BF8002010BD000059
:10197000003C024070B504460E4800784FF47A717E
:10198000B1FBF0F00C490968B1FBF0F5284600F016
:101990004BFC08B1012070BD102C07D2002221465B
:1019A000501E00F041F80548046001E00120F2E714
:1019B0000020F0E714000020180000201000002094
:1019C00008B500BF002000900E48006840F4804039
:1019D0000C4908600846006800F48040009000BF91
:1019E00000BF00BF00200090081F006840F080503A
:1019F000091F08600846006800F08050009000BF92
:101A000000BF08BD4438024001460846002809DBF3
:101A100000F01F0301229A4043099B0003F1E023D9
:101A2000C3F8002100BF70472DE9F05F80460D46E6
:101A30001646002702F0AEF8074639462A463346D6
:101A400001F00700C0F1070ABAF1040F02D94FF004
:101A5000040A01E0C0F1070AD14600F1040ABAF114
:101A6000070F02D24FF0000A01E0A0F1030AD446AA
:101A70004FF0010A0AFA09FAAAF1010A0AEA020A6F
:101A80000AFA0CFA4FF0010B0BFA0CFBABF1010B4D
:101A90000BEA030B4AEA0B042146404602F082F8A7
:101AA000BDE8F09F00BF00F00702064B19684FF633
:101AB000FF031940044B0B4343EA0221014B196019
:101AC00000BF70470CED00E00000FA0570B5044659
:101AD0000D460CB9012070BD5848006800F00700A1
:101AE000A84209D255490D700846006800F0070069
:101AF000A84201D00120EEE7207800F00200022881
:101B00001DD1207800F00400042805D14C4800685D
:101B100040F4E0504A490860207800F008000828A6
:101B200005D14748006840F4604045490860444892
:101B3000006820F0F000A16808434149086020785F
:101B400000F00100A8B36068012807D13C480838BC
:101B50000068C0F34040B8B90120BCE760680228C3
:101B600002D06068032807D1354808380068C0F300
:101B7000406048B90120AEE7314808380068C0F33A
:101B8000400008B90120A6E72D48006820F00300B6
:101B9000616808432A490860FFF7BCFE064609E071
:101BA000FFF7B8FE801B41F28831884202D903203A
:101BB00091E707E02248006800F00C006168B0EB94
:101BC000810FEDD11D48006800F00700A84209D937
:101BD0001A490D700846006800F00700A84201D0BD
:101BE000012078E7207800F00400042807D1144889
:101BF000006820F4E050E16808431149086020784B
:101C000000F00800082808D10D48006820F4604062
:101C1000216940EAC1000A49086000F045F8084916
:101C20000968C1F30311074A515CC84006490860BE
:101C300006480068FFF79EFE00204CE7003C02408B
:101C40000838024030B800081800002010000020BA
:101C500001200149C86470470000474201480068FC
:101C6000704700001800002000B5FFF7F7FF044997
:101C70000968C1F38221034A515CC84000BD0000DD
:101C80000838024040B8000800B5FFF7E7FF0449F4
:101C90000968C1F34231034A515CC84000BD0000ED
:101CA0000838024040B800082DE9F047002400251C
:101CB0000026A1462548006800F00C0020B1042849
:101CC00005D008283AD105E0DFF8849039E0DFF844
:101CD000849036E01D48001F006800F03F041B4858
:101CE000001F006800F4800078B11A481749091FE6
:101CF0000968C1F38811A0FB017001462246002348
:101D00003846FEF75DFA05460EE011480F49091FF7
:101D10000968C1F38811A0FB017001462246002327
:101D20003846FEF74DFA05460848001F0068C0F324
:101D30000140401C4600B5FBF6F902E0DFF81090C8
:101D400000BF00BF4846BDE8F087000008380240E9
:101D50000024F40000127A00F8B504460CB9012002
:101D6000F8BD207800F00100002874D0F948006820
:101D700000F00C0004280DD0F648006800F00C00BC
:101D8000082813D1F348001F006800F48000B0F564
:101D9000800F0BD1EF4808380068C0F3404000289E
:101DA00059D06068002856D10120D9E700BF60688B
:101DB000B0F5803F08D1E7480838006840F480302B
:101DC000E449083908601EE06068B0F5A02F0DD125
:101DD000E0480838006840F48020DE49083908608F
:101DE0000846006840F4803008600CE0D9480838A4
:101DF000006820F48030D749083908600846006838
:101E000020F48020086000BF606890B1FFF782FD79
:101E1000054606E0FFF77EFD401B642801D903203C
:101E20009EE7CC4808380068C0F340400028F1D055
:101E300011E0FFF76FFD054606E0FFF76BFD401B65
:101E4000642801D903208BE7C24808380068C0F332
:101E500040400028F1D1207800F0020002285FD134
:101E6000BC48006800F00C0058B1BA48006800F0A7
:101E70000C0008281CD1B748001F006800F480003F
:101E8000B0B9B44808380068C0F3400020B1E06839
:101E9000012801D0012063E7AE480838006820F02F
:101EA000F800216940EAC100AA490839086037E012
:101EB000E06800B30120A8490860FFF72BFD054644
:101EC00006E0FFF727FD401B022801D9032047E762
:101ED000A04808380068C0F340000028F1D09D48B1
:101EE0000838006820F0F800216940EAC1009949EB
:101EF0000839086014E0002097490860FFF70AFDE0
:101F0000054606E0FFF706FD401B022801D9032025
:101F100026E7904808380068C0F340000028F1D157
:101F2000207800F0080008282CD16069A8B10120B1
:101F30008A490860FFF7EEFC054606E0FFF7EAFC79
:101F4000401B022801D903200AE782486C30006850
:101F5000C0F340000028F1D014E000207F49086061
:101F6000FFF7D8FC054606E0FFF7D4FC401B02282B
:101F700001D90320F4E677486C300068C0F34000D4
:101F80000028F1D1207800F00400042870D1002747
:101F900070483830006800F0805090B900BF0020D1
:101FA00000906C483830006840F080506949383102
:101FB00008600846006800F08050009000BF00BF35
:101FC00001276748006800F48070B0B96448006871
:101FD00040F4807062490860FFF79CFC054606E00B
:101FE000FFF798FC401B022801D90320B8E65C48A3
:101FF000006800F480700028F2D000BFA0680128BB
:1020000008D154486830006840F0010051496831F7
:1020100008601DE0A06805280DD14E4868300068B2
:1020200040F004004B49683108600846006840F001
:10203000010008600CE047486830006820F00100AB
:102040004449683108600846006820F004000860D0
:1020500000BFA068A8B1FFF75DFC054609E0FFF7E7
:1020600059FC401B41F28831884202D9032077E6AF
:1020700026E0384868300068C0F340000028EED001
:1020800013E0FFF747FC054608E0FFF743FC401B61
:1020900041F28831884201D9032061E62D48683039
:1020A0000068C0F340000028EFD1012F07D1294874
:1020B0003830006820F0805026493831086000BF71
:1020C000A069002845D02348006800F00C000828CB
:1020D0005DD0A069022845D100201F490866FFF79E
:1020E00019FC054606E0FFF715FC401B022801D944
:1020F000032035E6174808380068C0F34060002820
:10210000F1D1D4E907010843616A40EA8111012253
:10211000A06AC2EB500041EA00412C20005D41EA78
:1021200000600C49091F086001200B490866FFF791
:10213000F1FB054606E0FFF7EDFB401B022801D945
:1021400003200DE6034808380068C0F3406000280B
:10215000F1D049E00838024000004742800E474273
:1021600000700040002021490866FFF7D3FB0546B8
:1021700006E0FFF7CFFB401B022801D90320EFE563
:102180001B480068C0F340600028F2D12CE0A06931
:10219000012800D1E4E51648001D0668A069012861
:1021A00020D006F48001E06981421BD106F03F0196
:1021B000206A814216D147F6C0703040616AB0EBA8
:1021C000811F0FD106F440310122A06AC2EB5000FA
:1021D000B1EB004F06D106F070612C20005DB1EB31
:1021E000006F01D00120BBE50020B9E500004742A7
:1021F00000380240042808D14FF0E021096941F07D
:1022000004014FF0E022116107E04FF0E02109697D
:1022100021F004014FF0E0221161704701200149D3
:10222000086070470000002070B504462546681E0F
:10223000B0F1807F01D301200FE0681E4FF0E02154
:1022400048610F214FF0FF3001F0ACFC00204FF04F
:10225000E021886107200861002070BD10B5FFF7FC
:10226000DDFF10BD7047704730B502460B4600BF1A
:1022700092F83C00012801D1022030BD012082F8F3
:102280003C0000BF022082F83D00106844681068DE
:10229000816824F070041868044310684460184D85
:1022A0001068A8421BD01068B0F1804F17D0154DB0
:1022B0001068A84213D0144D1068A8420FD0134DD7
:1022C0001068A8420BD0124D1068A84207D0114DDB
:1022D0001068A84203D0104D1068A84205D121F023
:1022E00080015868014310688160012082F83D0038
:1022F00000BF002082F83C0000BF00BFBDE7000027
:10230000000001400004004000080040000C0040B4
:1023100000040140004001400018004010B5044690
:102320000CB9012010BD94F83D0028B9002084F8B4
:102330003C00204600F026F8022084F83D00211DD4
:10234000206801F0EDF8012084F8460000BF84F811
:102350003E0001213F2001554020015541200155FB
:1023600000BF00BF012084F84200432001554420F3
:1023700001554520015500BF012084F83D00002093
:10238000D0E7000038B504462068B0F1804F0FD187
:1023900000BF002000901F48006840F001001D4968
:1023A00008600846006800F00100009000BF2FE0C0
:1023B0001949206888420FD100BF002000901548BD
:1023C000006840F00200134908600846006800F009
:1023D0000200009000BF1BE010492068884217D11E
:1023E00000BF002000900B48006840F0040009493D
:1023F00008600846006800F00400009000BF00BFBD
:10240000012211461E20FFF70FFB1E20FFF7FCFAEA
:1024100038BD000040380240000400400008004081
:10242000014691F83D00012801D0012070470220AB
:1024300081F83D001A4B086898421BD00868B0F13B
:10244000804F17D0174B0868984213D0164B086876
:1024500098420FD0154B086898420BD0144B08686F
:10246000984207D0134B0868984203D0124B086873
:1024700098420CD10868806800F00702062A0CD048
:102480000868006840F001000B68186005E0086803
:10249000006840F001000B6818600020C6E70000EB
:1024A000000001400004004000080040000C004013
:1024B000000401400040014000180040014691F82E
:1024C0003D00012801D001207047022081F83D0025
:1024D0000868C06840F001000B68D8601A4B0868B3
:1024E00098421BD00868B0F1804F17D0174B08688E
:1024F000984213D0164B086898420FD0154B0868C5
:1025000098420BD0144B0868984207D0134B0868C8
:10251000984203D0124B086898420CD10868806832
:1025200000F00702062A0CD00868006840F001009D
:102530000B68186005E00868006840F001000B684F
:1025400018600020C0E700000000014000040040C7
:1025500000080040000C0040000401400040014021
:10256000001800402DE9F04104460D4600BF94F8E4
:102570003C00012802D10220BDE8F081012084F84E
:102580003C0000BF022084F83D002068866826F0E9
:10259000770626F47F46206886602868502833D066
:1025A0000CDC202850D004DC00284BD0102851D15E
:1025B00049E0302849D040284CD139E060282DD05E
:1025C000702807D0B0F5805F03D0B0F5005F41D12F
:1025D0000DE040E0D5E902136A68206801F00CF8CC
:1025E0002068866846F077062068866033E0D5E983
:1025F00002136A68206800F0FFFF2068806840F4DA
:1026000080402168886026E0EA686968206801F0F7
:102610005CF85021206800F0FAFF1CE0EA68696865
:10262000206801F065F86021206800F0F0FF12E0FA
:10263000EA686968206801F048F84021206800F0E5
:10264000E6FF08E000BF00BF00BF2968206800F077
:10265000DEFF00E000BF00BF012084F83D0000BFA6
:10266000002084F83C0000BF00BF85E7704710B52C
:10267000044620680069C0F34000D8B12068C068F3
:10268000C0F34000B0B16FF0020021680861012082
:1026900020772068806900F0030018B12046FFF71A
:1026A000E5FF05E0204600F0ADF8204600F0ABF86D
:1026B0000020207720680069C0F38000D8B120682E
:1026C000C068C0F38000B0B16FF0040021680861F9
:1026D000022020772068806900F4407018B12046FD
:1026E000FFF7C4FF05E0204600F08CF8204600F01C
:1026F0008AF80020207720680069C0F3C000D8B1B4
:102700002068C068C0F3C000B0B16FF00800216855
:102710000861042020772068C06900F0030018B128
:102720002046FFF7A3FF05E0204600F06BF82046A7
:1027300000F069F80020207720680069C0F30010DD
:10274000D8B12068C068C0F30010B0B16FF01000BD
:1027500021680861082020772068C06900F4407073
:1027600018B12046FFF782FF05E0204600F04AF846
:10277000204600F048F8002020772068006900F02B
:10278000010058B12068C06800F0010030B16FF05E
:10279000010021680861204600F036F820680069D1
:1027A000C0F3C01058B12068C068C0F3C01030B189
:1027B0006FF08000216808612046FFF753FD206814
:1027C0000069C0F3801058B12068C068C0F3801061
:1027D00030B16FF0400021680861204600F054F8E5
:1027E00020680069C0F3401058B12068C068C0F389
:1027F000401030B16FF02000216808612046FFF7DB
:1028000032FD10BD7047704710B50446024884423F
:1028100001D102F0D1F910BD7801002070B5044655
:102820000D4600BF94F83C00012801D1022070BD84
:10283000012084F83C0000BF022084F83D002946B6
:10284000204600F0EDFE48B1012084F83D0000BFB5
:10285000002084F83C0000BF0120E8E72068C06841
:1028600020F040002168C8602068C06820F48040E3
:102870002168C860012084F83D0000BF002084F872
:102880003C0000BF00BFD2E77047704770470000B0
:102890002DE9F84F0446206805682068C66820685E
:1028A00047694FF00009CA4605F00F09B9F1000F5A
:1028B0000AD105F0200038B106F0200020B12046F2
:1028C00000F05FFFBDE8F88FB9F1000F72D007F09C
:1028D000010018B906F4907000286BD005F00100D3
:1028E00030B106F4807018B1206C40F00100206413
:1028F00005F0040030B107F0010018B1206C40F081
:102900000200206405F0020030B107F0010018B1A8
:10291000206C40F00400206405F0080048B106F087
:10292000200010B907F0010018B1206C40F0080039
:102930002064206C70B305F0200028B106F0200060
:1029400010B1204600F01DFF20684069C0F3801AD6
:10295000206C00F0080010B9BAF1000F23D0204617
:1029600000F0E4FE2068406900F04000402816D1E5
:102970002068406920F0400021684861A06B50B198
:102980005648A16B0865A06BFEF75FF910B1A06B0C
:10299000016D88470CE02046FFF778FF08E02046ED
:1029A000FFF774FF04E02046FFF770FF002020646B
:1029B00088E7FFE7206B012879D105F01000002897
:1029C00075D006F01000002871D000BF00200090E4
:1029D00020680068009020684068009000BF00BF39
:1029E0002068406900F04000402839D1A06B0068A1
:1029F00040681FFA80F8B8F1000F30D0A08D404534
:102A00002DDDA4F82E80A06BC069B0F5807F1FD0AB
:102A10002068C06820F480702168C8602068406920
:102A200020F00100216848612068406920F04000E2
:102A300021684861202084F83E000020206320683F
:102A4000C06820F010002168C860A06BFEF7A8F8ED
:102A5000A08DE28D801A81B22046FFF716FF31E784
:102A6000A08DE18D401A1FFA80F8E08DE8B1B8F131
:102A7000000F1AD02068C06820F490702168C860E8
:102A80002068406920F0010021684861202084F816
:102A90003E00002020632068C06820F010002168FC
:102AA000C86041462046FFF7F0FE0BE7FFE705F060
:102AB000800030B106F0800018B1204600F0D6FF4B
:102AC00000E705F0400030B106F0400018B12046A4
:102AD00000F047FEF6E600BFF4E6000019370008F4
:102AE00010B504460CB9012010BDA06900B100E08A
:102AF00000BF94F83D0028B9002084F83C0020462F
:102B000000F028F8242084F83D002068C06820F4F4
:102B100000502168C860204600F092FE20680069DD
:102B200020F49040216808612068406920F02A0064
:102B3000216848612068C06840F400502168C8607E
:102B400000202064202084F83D0084F83E0000200E
:102B5000CAE7000010B586B00446142101A8FDF7AD
:102B6000AAFB1F492068884237D100BF002000908F
:102B70001C48006840F400301A49086008460068A4
:102B800000F40030009000BF00BF00BF00200090A4
:102B900014481038006840F00800124910390860E5
:102BA0000846006800F00800009000BF00BF6020E9
:102BB000019002200290002003900320049007203F
:102BC000059001A90848FEF795FD00220421262062
:102BD000FEF72AFF2620FEF717FF06B010BD000003
:102BE0000044004040380240000C024070472DE98C
:102BF000F84F04460E46174699464FF0000A94F8DF
:102C00003D0020285AD106B117B90120BDE8F88F40
:102C100000BF94F83C00012801D10220F6E7012012
:102C200084F83C0000BF00202064212084F83D008F
:102C3000FEF770FE8246A784E784A068B0F5805F47
:102C400004D1206910B90025B04602E035464FF0A6
:102C5000000800BF002084F83C0000BF1BE0534682
:102C6000002280212046CDF8009000F02FFF08B10F
:102C70000320CBE745B9B8F80000C0F3080021688D
:102C8000486008F1020803E02878216848606D1C5C
:102C9000E08C401EE084E08C0028E0D15346002206
:102CA00040212046CDF8009000F010FF08B103202D
:102CB000ACE7202084F83D000020A7E70220A5E72C
:102CC000704700BFFEE7000010B50446214642A051
:102CD00000F03CFF00231A4641F61241204608F05E
:102CE00051FD00231A464FF4B051204608F04AFD2A
:102CF0003D4B01224FF4B051204608F0EFFC3B4B16
:102D000002224FF4B051204608F0E8FC384B032271
:102D10004FF4B051204608F0E1FC364B04224FF44A
:102D2000B051204608F0DAFC042300224FF4B051E1
:102D3000204608F027FD4FF4B053012241F612411E
:102D4000204608F075FC0123002241F6124120467E
:102D500008F018FD00231A4641F61341204608F0FA
:102D600011FD00231A464FF4D051204608F00AFD09
:102D7000214B01224FF4D051204608F0AFFC1F4BED
:102D800002224FF4D051204608F0A8FC1C4B03222D
:102D90004FF4D051204608F0A1FC032300224FF449
:102DA000D051204608F0EEFC4FF4D053012241F6FA
:102DB0001341204608F03CFC0123002241F6134158
:102DC000204608F0DFFC0323002246F26001204683
:102DD00008F0D8FC002010BD20736C76636E742060
:102DE0003D2025640D0A0000100040602000836033
:102DF000200084602000FF601000416020006460BB
:102E000020006C6008B5002000906946FDF784FE44
:102E1000009840F480500090009881B20020FDF7A7
:102E20008BFE08BD38B5002000906A4601213D4860
:102E3000FEF7C0FA04462CB13BA000F087FE6FF00D
:102E4000040038BD6A4601213648FEF7B3FA04464D
:102E500014B16FF00400F4E7009800F0040008B922
:102E60000120EEE73CA0009900F070FE6A460021C8
:102E70002C48FEF79FFA044614B16FF00400E0E717
:102E80003AA0009900F062FE009800F48050B0F57E
:102E9000805F1FD0009800F40050B0F5005F07D1AC
:102EA000009800F48070B0F5807F01D10220C8E75F
:102EB000009800F40050B0F5005F01D10320C0E796
:102EC000009800F48070B0F5807F01D10420B8E74D
:102ED0000520B6E76A461F211248FEF76BFA044642
:102EE00014B16FF00400ACE7009800F4805008B90A
:102EF0000620A6E7009800F01C00182801D1022047
:102F00009FE7009800F01C00082801D1032098E7F3
:102F1000009800F01C00142801D1042091E705203E
:102F20008FE700006C42002048414C5F4554485FE9
:102F300052656164504859526567697374657220BF
:102F40004C414E383732305F425352204572726FD7
:102F500072200D0A00000000313131726561647623
:102F6000616C203D202578200D0A0000323232723B
:102F700065616476616C203D202578200D0A000093
:102F800038B500200090002420202649086000BFAA
:102F900015E06A4612212448FEF70CFA054625B1D1
:102FA000214622A000F0D2FD08E0009800F01F00AA
:102FB000A04202D11B48046005E000BF641C194810
:102FC00000688442E5D900BF21461FA000F0BEFD85
:102FD000144800681F2802D94FF0FF3038BD4FF465
:102FE000004200211048FEF7F6FA054615B14FF0F1
:102FF000FF30F3E700BF6A4600210B48FEF7DAF91D
:1030000005462DB115A000F0A1FD4FF0FF30E5E71A
:10301000009800F400400028EDD1FFF7F3FE0020F7
:10302000DCE70000340000206C420020526561643F
:103030002041646472657373202564206572726F29
:1030400072200D0A000000006C616E38373230616A
:10305000646472203D2025640D0A000048414C5FE5
:103060004554485F526561645048595265676973B9
:10307000746572204C414E383732305F42435220E3
:103080004572726F72200D0A000000000EB500201C
:10309000029023A103C9CDE9000123482349086018
:1030A0000846C0F814D00120486081031F488160A1
:1030B000C910C16009030162012181610021C16160
:1030C0000182FDF76DFF0423194A1A491748FDF7DD
:1030D000CBFE0423184A19491448FDF77FFE134814
:1030E000FEF7B1F902AA11211048FEF763F9029820
:1030F00040F00300029011210C48029AFEF76BFA8F
:1031000002AA12210948FEF755F9029840F0200062
:10311000029012210548029AFEF75DFA0EBD0000EA
:103120000200000000000000008002406C4200200D
:103130009C2A00204C120020CC120020CC11002030
:1031400000B587B0142102A8FDF7B5F800BF002034
:1031500001903B48006840F080003949086008460B
:10316000006800F08000019000BF00BF00BF002099
:1031700001900846006840F00100086008460068B9
:1031800000F00100019000BF00BF00BF00200190CF
:103190000846006840F0400008600846006800F0FB
:1031A0004000019000BF00BF00BF00200190084612
:1031B000006840F0080008600846006800F0080059
:1031C000019000BF00BF00BF0020019008460068CA
:1031D00040F0020008600846006800F0020001901C
:1031E00000BF00BF012209211648FEF78DFB092010
:1031F000029001200390002004900220059002A973
:103200001048FEF777FA4FF4154002900E480390ED
:103210000120049002A90D48FEF76CFA0022052156
:103220001720FEF701FC1720FEF7EEFB0022052118
:103230002820FEF7F9FB2820FEF7E6FB07B000BDCB
:103240003038024000000240000021100018024007
:1032500000B587B04FF080401049086053204860A7
:1032600000210E4881600E49C16000210161FFF715
:1032700055F84FF48050039003A90848FFF772F9FE
:10328000202001908020029001A90448FEF7ECFF65
:103290000248FFF7C5F807B000BD0000E8000020B5
:1032A0003F420F0000B585B00E480F49086000206E
:1032B000486000210C4881604CF25031C16000210F
:1032C0000161FFF72BF807200090102001900020EB
:1032D000029069460448FFF7A1FA0348FFF7A0F8F7
:1032E00005B000BD000400403001002000B587B0EB
:1032F0000F48104908605320486000210D48816044
:1033000040F2CF71C16000210161FFF707F84FF46F
:103310008050039003A90748FFF724F9002001908B
:10332000029001A90348FEF79FFF07B000BD00000F
:10333000000800407801002010B50B480B490860D8
:103340004FF4E1304860002108488160C1600161AC
:103350000C21416100218161C161FFF7C1FB08B10E
:10336000FDF710FC10BD000000440040A400002048
:1033700000BFFEE700BFFEE72DE9F0410027002671
:10338000FFF7FEFDC7B200BF6420FDF773FCFFF737
:1033900049FD0546294615A000F0D8FB012DF3DDB7
:1033A000022D06D0032D08D0042D0AD0052D0FD1F3
:1033B0000BE04FF40064E6000EE000244FF480467A
:1033C0000AE04FF40064002606E00024002603E033
:1033D0004FF40064E60000BF00BF0C48C460866084
:1033E0000021FDF75BFCBDE8F08100004C414E3848
:1033F0003732305F4765744C696E6B537461746526
:10340000203D202564200D0A000000006C420020B1
:103410007047704710B5FEF783FAFEF71FFF10BD27
:1034200010B592B0302106A8FCF745FF142101A881
:10343000FCF741FF00BF002000902E48006840F0DC
:1034400080502C4908600846006800F080500090C9
:1034500000BF00BF00BF002000902748006840F474
:103460008040254908600846006800F480400090CC
:1034700000BF00BF012006900004079002200C90BE
:1034800041050D9108210E914FF4A8710F91022171
:1034900010910721119106A8FEF75EFC08B1FDF717
:1034A00071FB0F20019002200290002003904FF446
:1034B000A05004904FF480500590052101A8FEF71C
:1034C00005FB08B1FDF75EFBFEF7C2FBFEF7C6FB8E
:1034D0004FF47A71B0FBF1F42046FEF7A5FE04200C
:1034E000FEF788FE00221146501EFEF79DFA12B02C
:1034F00010BD0000403802400070004003480068E2
:1035000040F47000014908607047000088ED00E059
:1035100010B50248FFF7ABF810BD0000780100209D
:1035200010B50268294B98420ED0B0F1804F0BD0F5
:10353000274B984208D0274B984205D0264B9842FB
:1035400002D0264B984203D122F070024B681A43F6
:103550001E4B984220D0B0F1804F1DD01C4B98429A
:103560001AD01C4B984217D01B4B984214D01B4BBF
:10357000984211D01A4B98420ED01A4B98420BD059
:10358000194B984208D0194B984205D0184B9842D5
:1035900002D0184B984203D122F44072CB681A43F0
:1035A00022F080034C6943EA040202608B68C36224
:1035B0000B688362054B984202D0084B984201D1B8
:1035C0000B6903630123436110BD0000000001404B
:1035D0000004004000080040000C004000040140CE
:1035E00000400140004401400048014000180040F4
:1035F000001C00400020004030B50C46816821F4DA
:103600007F4142EA032525432943816030BD0A46B4
:10361000816821F0700142F007031943816070470F
:103620002DE9F04105460C462868866826F07006AC
:103630006068064326F0070620680643286886600F
:10364000606800F00F0100293BD10011082838D232
:10365000DFE800F0333435360B272D04D4E90313AB
:10366000A2682868FFF7C8FF2CE02068052802D16F
:103670000120BDE8F0812868D0F820802868006A21
:1036800020F00100296808622868876927F0F007A0
:10369000206947EA0017286887612868C0F82080F9
:1036A00010E02269A168286800F00FF80AE022699A
:1036B000A168286800F01CF804E000BF00BF00BF4C
:1036C00000E000BF00BF0020D3E730B50B46144632
:1036D000026A056A25F001050562816921F0F001A1
:1036E00041EA041122F00A021A438161026230BDEC
:1036F00030B50B461446056A25F010050562816950
:10370000026A21F4704141EA043122F0A00242EA47
:1037100003128161026230BD70B50546AC6B0020BA
:10372000E085E0842046FFF7B1F870BD0168C96804
:1037300021F490710268D1600168496921F00101AA
:1037400002685161016B012905D10168C96821F046
:1037500010010268D160202180F83E100021016331
:10376000704710B504462068C06820F0400021680A
:10377000C860202084F83D002046FFF7A1FA002011
:1037800010BD70B5044694F83E00222856D1A068BA
:10379000B0F5805F0CD1206950B90025A66A206879
:1037A0004068C0F308003080A06A801CA06215E069
:1037B000A56A0026A068B0F5805F03D0A06828B98C
:1037C000206918B920684068287004E020684068C3
:1037D00000F07F002870A06A401CA062E08D401EAF
:1037E00080B2E08540BB2068C06820F020002168DE
:1037F000C8602068C06820F480702168C8602068B4
:10380000406920F0010021684861202084F83E00D2
:10381000206B01280AD12068C06820F010002168C0
:10382000C860A18D2046FFF730F802E02046FFF780
:10383000DDF90020206370BD0020FCE70220FAE7DC
:103840002DE9F84F04462068006920F44050E168F3
:103850000843216808612169A06808436169084339
:10386000E169084300902068C06849F20C61884310
:10387000009908432168C8602068406920F44070BE
:10388000A16908432168486176492068884203D0CD
:1038900075492068884203D1FEF7F6F9814602E0B7
:1038A000FEF7E2F98146E069B0F5004F6CD10220E5
:1038B0006168A0FB015003461920A9FB0070014676
:1038C0002A463846FCF77CFC6421B0FBF1F04FEA55
:1038D000001A02206168A0FB01510B461920A9FBC8
:1038E00000712A463846FCF76BFC8346022061686B
:1038F000A0FB015003461920A9FB00712A46384657
:10390000FCF75EFC6421B0FBF1F000EBC00101EBC1
:103910000010ABEB8000322101EBC0006421B0FB52
:10392000F1F000F0F8000AEB400A02206168A0FB09
:10393000015003461920A9FB007001462A4638466B
:10394000FCF73EFC834602206168A0FB0150034661
:103950001920A9FB00712A463846FCF731FC642186
:10396000B0FBF1F000EBC00101EB0010ABEB80000D
:10397000322101EBC0006421B0FBF1F000F0070040
:103980005044216888606AE004206168A0FB01500F
:1039900003461920A9FB007001462A463846FCF769
:1039A0000FFC824604206168A0FB015003461920E9
:1039B000A9FB007001462A463846FCF701FC642149
:1039C000B0FBF1F000EBC00101EB0010AAEB8000AE
:1039D000322101EB00106421B0FBF1F000F0F00A9D
:1039E00004206168A0FB017003461920A9FB005167
:1039F0003A462846FCF7E4FB6421B0FBF1F00AEB01
:103A0000001A04206168A0FB01510B461920A9FB94
:103A100000712A463846FCF7D3FB834604206168D0
:103A2000A0FB015003461920A9FB007001462A465D
:103A30003846FCF7C5FB6421B0FBF1F000EBC00198
:103A400001EB0010ABEB8000322101EB0010642190
:103A5000B0FBF1F000F00F00504421688860BDE831
:103A6000F88F00000010014000140140014691F859
:103A70003D00212828D18868B0F5805F0BD1086906
:103A800048B90A6A1088C0F308000B685860086AD1
:103A9000801C086205E00B6A581C086218780B68E5
:103AA0005860C88C401E80B2C88458B90868C06885
:103AB00020F080000B68D8600868C06840F04000C3
:103AC0000B68D860002070470220FCE72DE9F04128
:103AD00004460D4617469846069E21E0701CF8B134
:103AE0002EB1FDF717FFA0EB0800B04218D92068EF
:103AF000C06820F4D0702168C8602068406920F058
:103B0000010021684861202084F83D0084F83E00CF
:103B100000BF002084F83C0000BF0320BDE8F08116
:103B2000206800682840A84201D1012000E0002060
:103B3000B842D3D00020F1E710B50248FEF7A8FE46
:103B400010BD0000A400002000BFFEE70FB4054B2D
:103B500010B503A9044A029800F00AF910BC5DF8F8
:103B600014FB00003DB20008A00000200FB4084B79
:103B700010B504A902AA039800F0FAF8044602A9B5
:103B8000002000F08CFC204610BC5DF814FB000007
:103B90009F44000802480068C0F3022070470000FC
:103BA0000CED00E010B5002804DB0A07130E054AEF
:103BB000135406E00A07140E034A00F00F031B1FFC
:103BC000D45410BD00E400E018ED00E002E008C8A5
:103BD000121F08C1002AFAD170477047002001E087
:103BE00001C1121F002AFBD1704700002DE9FF5FC1
:103BF00082B00021DDE90430020DDDF840B003435E
:103C000018D044F61050A2F2FF3242431514119816
:103C100001281FD0A5EB0B00401C5FEA000A4FF003
:103C200000064E4FDFF83891B046504615D5CAF120
:103C3000000413E0119801244AA3012801D16FEA7E
:103C40000B010298119AC0E90031C0E9024206B0A6
:103C5000BDE8F09FCBF10000DFE704460021404AB9
:103C6000491842EB0450CDE9001012E0E00707D0FC
:103C700032463B4640464946FCF7EBFC80468946C7
:103C800032463B4610461946FCF7E3FC06460F4613
:103C90006410002CEAD1DDE90401DDE90023BAF16A
:103CA000000F06DAFCF7D5FC42464B46FCF7D1FC88
:103CB00005E0FCF7BBFB42464B46FCF7B7FB04466E
:103CC0000E460022284BFCF74FFD03D84FF0FF3083
:103CD000014607E00022254B20463146FCF7FFFA5B
:103CE000FCF729FD102409E0002C0ADB0A2200233E
:103CF000FCF766FA039B30321A55641E50EA010243
:103D0000F2D1641C039AC4F111031444119A012ADC
:103D100003D0012208430DD10AE0084304D000205B
:103D20004FF0110B119072E7A3EB0B056D1E0DE028
:103D30005B4504DD4FF0000205F1010504E003DA04
:103D40004FF00002A5F10105002AECD0029811996C
:103D5000C0E90231C0E9004579E7000000001440E5
:103D60000000F03F300000000000F0430000E03FA2
:103D70002DE9FF4F95B09B468946064600250FE288
:103D8000252877D100242746F84A0121059400E030
:103D9000044316F8013F203B01FA03F01042F7D12B
:103DA00030782A2811D06FF02F033078A0F130023C
:103DB000092A16D8059A44F0020402EB820203EBAA
:103DC00042021044761C0590EFE759F8042B059247
:103DD000002A03DA504244F40054059044F00204EF
:103DE000761C30782E2816D116F8010F44F0040402
:103DF0002A280DD06FF02F023078A0F13003092B64
:103E000009D807EB870302EB4303C718761CF3E7D7
:103E100059F8047B761C30786C280FD006DC4C28CF
:103E200017D068280DD06A2814D104E0742810D067
:103E30007A280FD10DE044F400140AE044F4801411
:103E400001E044F440147278824202D104F58014F7
:103E5000761C761C307866280BD013DC582877D077
:103E600009DC002875D04528F6D04628F4D047282C
:103E70001AD19DE118E0632835D0642879D06528EF
:103E800012D195E1702873D008DC6728F1D0692839
:103E90006FD06E280DD06F2806D1B5E073282CD0D6
:103EA000752875D0782874D05A46179990476D1C9C
:103EB00075E1C4F30250022809D003280DD0D9F8C7
:103EC000001004280DD00D6009F1040967E1D9F84C
:103ED0000010EA17C1E90052F6E7D9F800100D808A
:103EE000F2E70D70F0E719F8041B8DF800100020C0
:103EF0008DF80100EA46012003E059F804AB4FF0C9
:103F0000FF3061074FF0000102D40DE008F101011C
:103F10008846B9420FDA8045F8DB1AF80810002904
:103F2000F4D108E008F1010188468142FADB1AF871
:103F300008100029F6D105985B46A0EB080721463A
:103F40003846179A00F094FA284400EB080507E079
:103F50004DE029E10DE01AF8010B5A4617999047F8
:103F6000B8F10108F7D25B4621463846179A13E1AB
:103F700042E00A220092C4F302524FF0000A022AE1
:103F800008D059F804CB032A4FEAEC710AD00DE0AF
:103F900029E02AE009F1070121F00702F2E802C155
:103FA000914609E00FFA8CFC4FEAEC71042A03D128
:103FB0004FFA8CFC4FEAEC71002907DA0A4600211F
:103FC000DCF1000C61EB02012D2202E0220504D598
:103FD0002B228DF80420012203E0E20701D02022E9
:103FE000F7E7904659E00A2102E010220DE0102187
:103FF0004FF0000A00910BE010224FF0000A44F04D
:1040000004040827009203E008224FF0000A0092FF
:10401000C4F30252022A05D059F804CB0021032A26
:1040200008D009E009F1070121F00702F2E802C116
:10403000914605E01FFA8CFC042A01D10CF0FF0C1C
:104040004FF00008220728D5702806D0009B83F087
:10405000100353EA0A0305D00EE040228DF8042035
:10406000012208E05CEA010206D030228DF804202B
:104070008DF8050002229046009B83F0080353EA66
:104080000A030AD15CEA010201D1620705D5302298
:104090008DF804204FF001087F1E582804D034A06A
:1040A00003900EA802900DE036A0F9E75346604653
:1040B000009AFCF785F884460398825C0298401EBB
:1040C000029002705CEA0100F0D1029806A9081A79
:1040D00000F1200A600702D524F4803400E00127B3
:1040E000574502DDA7EB0A0000E0002000EB0A01C3
:1040F000009005984144401A0590E00306D45B46C1
:104100002146179A059800F0B3F90544002706E008
:1041100001A85A46C05D179990476D1C7F1C474502
:10412000F6DBE0030CD55B462146179A059800F0B4
:104130009FF9054404E030205A46179990476D1CBA
:104140000099481E00900029F5DC08E002980299C9
:104150005A460078491C0291179990476D1CBAF194
:104160000001AAF1010AF1DC65E100000928010063
:1041700030313233343536373839616263646566DD
:10418000000000003031323334353637383941429F
:10419000434445460000000000F058F90544761CF1
:1041A000307800287FF4ECAD19B02846BDE8F08FD8
:1041B000620700D4062709F1070222F0070CFCE889
:1041C0000223E14603F000485FEA080C02D00FF238
:1041D000702C0DE05FEA045C02D50FF2682C07E05A
:1041E0005FEAC47C02D00FF2602C01E0AFF2700CE9
:1041F0004FF0FF3823F00043CDF850C065280CD0B5
:1042000006DC452809D046281DD047283DD13DE091
:10421000662818D067287ED138E00021112F01DBF5
:10422000112000E0781CCDE9000106A90EA8FFF7D7
:10423000DDFCDDE90F010E9A03910021009207F1E8
:10424000010A04914DE04FF000400097CDE90110C4
:1042500006A90EA8FFF7CAFCDDE90F0203920E9B28
:1042600011990022DDF80CA00093049211B9791C79
:1042700000EB010AB7EB0A0004D4C0F1FF3007F1EC
:10428000010A0490AAEB0700019044E0012F00DA34
:1042900001270021112F01DD112000E03846CDE972
:1042A000000106A90EA8FFF7A1FCDDE90F010E9A97
:1042B0000391002104910092BA4621070CD403997E
:1042C000514500DA8A46BAF1010F05DD009AAAF1DC
:1042D0000101515C302908D0B84202DA10F1040F14
:1042E00006DA0121CDE9011015E0AAF10101E9E7A3
:1042F000002805DC049901440491AAEB000102E0C6
:10430000411C514500DD8A460499401A401C019029
:104310004FF000400290200704D40198504501DB83
:10432000CDF8048000208DF84F0002980DF14F0762
:10433000B0F1004F25D02B200E9002984FF00208CC
:1043400000280CDA404202902D200E9007E00A214E
:104350000298FCF7DAF83031029007F8011DB8F145
:104360000001A8F10108F2DC02980028EFD1791EC3
:104370000E980870307800F0200040F0450007F8F3
:10438000020D12A8C01B00F107081498007800B1B4
:10439000012000EB0A01019801EBE071059841440E
:1043A000401A401E0590E00306D45B462146179A4A
:1043B000059800F05DF805441498007818B15A4645
:1043C000179990476D1CE00324D55B462146179A48
:1043D000059800F04DF805441CE00498002807DB20
:1043E000DDE90301884203DD0098405C179901E094
:1043F000179930205A469047049805F10105401C52
:1044000004900198401E019004D12E205A4617991D
:1044100090476D1CBAF10001AAF1010ADDDC05E04C
:1044200017F8010B5A46179990476D1CB8F1000117
:10443000A8F10108F4DC5B462146179A0598ABE623
:104440002D0000002B000000200000002DE9F041AD
:10445000044600251E461746880404D405E0394664
:104460002020B0476D1C641EF9D52846BDE8F081B8
:104470002DE9F041044600251E469046C80301D5AB
:10448000302700E02027880404D505E0414638465F
:10449000B0476D1C641EF9D52846BDE8F0810A6856
:1044A000531C0B60107070472DE9F0470746894692
:1044B000002500262648FCF719FD8046B8F1000FBC
:1044C00042D12348C56B23480068C0EBC01000EB05
:1044D0004000214A02EB80012A463846FBF7D2FE13
:1044E0001C480068032805D21A480068401C194976
:1044F000086002E00020174908601548046B002698
:1045000005E0206840F000402060E468761C104818
:10451000806BB042F5D800210D488163006800F53A
:104520008050406900F0800058B180210848006840
:1045300000F58050416100210548006800F5805079
:1045400081602846BDE8F0874FF0FF30FAE70000B1
:104550006C42002030000020CC12002070B50446D0
:104560000D462A4621460448FBF78CFE29460248A0
:1045700006F076FE002070BD9C2A002000200A492B
:10458000897A094AD27A91420DD00749897A064A36
:10459000505C1146897A491C0A2291FBF2F302FB16
:1045A0001311014A91727047C001002010B50A4AE8
:1045B000D27A521C0A2392FBF3F403FB1422D1B2E9
:1045C000054A927A8A4205D0034AD27A024B98541D
:1045D0001A46D17210BD0000C001002010B51B4862
:1045E0000068008830B1062817D007281AD00F2895
:1045F0001ED11CE0164815490968C1F80600134988
:104600000968C1F80200134810490968C1F80A0096
:1046100006200E49096808800FE007200B49096849
:1046200008800AE00F2009490968088005E004E0D5
:10463000062006490968088000BF00BF03480068DB
:10464000018805A0FFF782FA10BD00001C000020C1
:1046500052555508AAAAAA010D0A63746C203D2080
:10466000256420200D0A00002DE9FF4704460D4671
:1046700016461F46DDE90D9ADDF8308033462A469E
:10468000214604488DE8800700F0FEFD04B0BDE837
:10469000F08700005000002010B5044640F2CE51D3
:1046A0002046FBF708FE10BD10B50446214602481F
:1046B00001F0D6FF10BD00005000002010B50446E8
:1046C0000021204600F002F810BD000070B504463D
:1046D0000D462A462146024802F024FD70BD000026
:1046E0005000002010B5024802F022FF10BD00006B
:1046F00050000020F8B504460D4616461F463346C6
:104700002A4621460248009703F03AFAF8BD000015
:104710005000002010B50246002000BF401C00EBF6
:10472000C0030D4C54F833305B1C63B100EBC00385
:1047300054F833309342F1D100EBC00304EBC303D0
:104740005B688B42EAD100EBC003034C54F8333072
:104750005B1C03B9002010BD54B8000810B5044616
:104760002146024803F0ABFC10BD000050000020C1
:10477000411CC8B2072800DD0120704710B504466F
:104780002146002000F002F810BD000070B504467C
:104790000D462A462146024805F045FD70BD000041
:1047A0005000002010B5002000F002F810BD0000FD
:1047B00010B504462146024805F028FE10BD000051
:1047C0005000002070B5044625464FF6FF7006F0F5
:1047D000E9FE28804FF6FF7006F0E4FE68804FF691
:1047E000FF7006F0DFFEA8800A49088806F0DAFEAE
:1047F000E8800849488806F0D5FE28810549888860
:1048000006F0D0FE688148F6A40006F0CBFEA88131
:1048100070BD000048B8000870B504460D46164645
:1048200033462A462146024806F04CFB70BD000084
:104830005000002010B504462146024806F0C8FC8E
:1048400010BD0000500000202DE9FC416AA0FFF7D8
:1048500085FF002870D06BA0FFF778F90020FFF7E4
:1048600023FF002869DD6D48D0F84421D0F84011BD
:104870006BA0FFF76BF97448006801283EDB012448
:1048800038E0C4EBC40000EB4410644901EBC00005
:104890008068B0F5801F2CD1C4EBC40000EB44103D
:1048A00001EBC000C0686949884222D1C4EBC40052
:1048B00000EB4410594A02EBC00000F58671224615
:1048C00063A0FFF743F9C4EBC40000EB4410534A64
:1048D00002EBC0008188224664A0FFF737F96A48DE
:1048E000C4EBC40101EB44114C4A02EBC101C1F815
:1048F0000801641C544800688442C2DDFFF7F2FEE0
:104900000023624A01210846FFF7F4FE6048FFF7E2
:10491000D5FE6048406B5F49096BCDE900105D48EA
:10492000C36A826A818B5CA0FFF710F9624A042196
:104930000020FFF771FF01E059E054E05FA0FFF7AE
:1049400005F95448818C408C01EB400066490860B1
:104950000846016865A0FFF7F9F808202F4908808C
:10496000FFF720FF4FF4FA60FFF708FF0020FFF782
:1049700061FF00BF4CF2503208210020FFF74CFFCE
:10498000301EA6F1010603D0244800880828F1D182
:10499000FFF7A8FE074639465BA0FFF7D7F80025CA
:1049A00006E008201D4908800020FFF743FF6D1C2A
:1049B0000A2DF6DB19480088082810D11748D0F8CE
:1049C0005801564908601548D0F8640154490860F8
:1049D00001205449086054A0FFF7B8F80AE05CA031
:1049E000FFF7B4F806E065A0FFF7B0F802E068A0B2
:1049F000FFF7ACF8BDE8FC81536572766F447269CD
:104A00007665000065635F696E6974207375636322
:104A100065656465642E0D0A00000000C442002034
:104A2000257820736C6176657320666F756E6420DF
:104A3000616E6420636F6E666967757265642E25AA
:104A400078200D0A00000000380000200D010C0045
:104A5000466F756E6420257320617420706F7369D2
:104A600074696F6E2025640D0A000000466F756E34
:104A70006420257820617420706F736974696F6E8B
:104A80002025640D0A000000C92C000840420F00D8
:104A9000CC010020A44700207365676D656E7473B8
:104AA000203A202564203A202564202564202564AE
:104AB0002025640A0000000080841E005265717584
:104AC000657374206F7065726174696F6E616C20BC
:104AD000737461746520666F7220616C6C20736CF6
:104AE000617665730A0000002800002043616C6352
:104AF000756C6174656420776F726B636F756E742B
:104B000065722025640A000044432063617061627D
:104B10006C65203A2025640D0A0000001C0000206E
:104B20002000002024000020616C6C20736C6176F2
:104B300065732072656163686564206F706572617A
:104B400074696F6E616C2073746174652E0D0A0058
:104B5000452F424F58206E6F7420666F756E64202B
:104B6000696E20736C61766520636F6E6669677528
:104B7000726174696F6E2E0D0A0000004E6F207313
:104B80006C6176657320666F756E64210D0A000096
:104B90004E6F20736F636B657420636F6E6E656319
:104BA00074696F6E20457863656375746520617301
:104BB00020726F6F740D0A0010B50548006828B1A7
:104BC000FFF7F0FD4FF4FA60FFF7D8FD10BD0000CD
:104BD000240000202DE9FF5F05460F4690461E4643
:104BE000DDE90E9B284603F0ABF9C4B240F2F72092
:104BF00014FB00F046F274522A4402EB40012346B3
:104C000001222846CDE90269CDE9007805F0CDFC06
:104C10005A462146284606F021F98246BAF1000F8D
:104C20000CDD40F2F720604305F1200202EB40006A
:104C300000F10C0132464846FBF724FB00222146D6
:104C4000284605F0A2FC504604B0BDE8F09FFEB532
:104C500005460E4617461C460020029002A8022375
:104C60003A463146CDE900042846FFF7B3FFBDF8C8
:104C70000800FEBD2DE9FF5F05460E461746984623
:104C8000DDE90E9A284603F05BF9C4B240F2F72042
:104C900014FB00F046F274522A4402EB4001234612
:104CA000022228468DE8C00305F07FFC52462146CB
:104CB000284606F0D3F8834600222146284605F010
:104CC00064FC584604B0BDE8F09FFFB583B00446CD
:104CD0000D4616460C9F06A8022332462946CDE90A
:104CE00000072046FFF7C6FF07B0F0BD2DE9FF5FC4
:104CF00005460F4690461E46DDE90E9B284603F00A
:104D00001FF9C4B240F2F72014FB00F046F27452CF
:104D10002A4402EB4001234607222846CDE90269D6
:104D2000CDE9007805F041FC5A462146284606F0B8
:104D300095F88246BAF1000F0CDD40F2F72060438F
:104D400005F1200202EB400000F10C01324648461A
:104D5000FBF798FA00222146284605F016FC50463B
:104D600004B0BDE8F09F2DE9FF5F05460E461746EB
:104D70009846DDE90E9A284603F0E2F8C4B240F204
:104D8000F72014FB00F046F274522A4402EB400173
:104D90002346082228468DE8C00305F006FC52464B
:104DA0002146284606F05AF8834600222146284626
:104DB00005F0EBFB584604B0BDE8F09F2DE9FF5F1E
:104DC00005460F4690461E46DDE90E9B284603F039
:104DD000B7F8C4B240F2F72014FB00F046F2745268
:104DE0002A4402EB4001234604222846CDE9026909
:104DF000CDE9007805F0D9FB5A462146284606F051
:104E00002DF88246BAF1000F0CDD40F2F720604326
:104E100005F1200202EB400000F10C013246484649
:104E2000FBF730FA00222146284605F0AEFB50463B
:104E300004B0BDE8F09FFEB505460E4617461C4679
:104E40000020029002A802233A463146CDE9000430
:104E50002846FFF7B3FFBDF80800FEBD2DE9FF5F50
:104E600005460E4617469846DDE90E9A284603F099
:104E700067F8C4B240F2F72014FB00F046F2745217
:104E80002A4402EB40012346052228468DE8C00350
:104E900005F08BFB52462146284605F0DFFF83468E
:104EA00000222146284605F070FB584604B0BDE8B4
:104EB000F09FFFB583B004460D4616460C9F06A82A
:104EC000022332462946CDE900072046FFF7C6FFF8
:104ED00007B0F0BD2DE9F04188B004460D461646F6
:104EE0001F46DDF83880182102A8FBF7E4F9684670
:104EF00006F0CEFADDE90001CDE90201ADF812506D
:104F0000ADF814608DF816700120E16A0870002079
:104F10008DF81700CDF8188002A9204604F09FFCF8
:104F200008B0BDE8F0812DE9FF4FADF6BC3D8146EC
:104F30008B46DDF8F47B0DF5BC60FFF7ADFB00237D
:104F40000DF5BC625946484604F0ECF9804604A8C9
:104F5000FFF7A2FB0DF5BC6404AD0A2028800020F9
:104F600068802871CBEBCB0202EB4B12D9F804100E
:104F700001EBC20191F8C800FFF7FAFB0390039818
:104F8000CBEBCB0202EB4B12D9F8041001EBC201C0
:104F900081F8C8000321039801EB001068714FF4F9
:104FA0000050E880DDF8F00B10B15020287201E0CD
:104FB00040202872DDF8C40BA5F80900DDF8F00BDD
:104FC00030B1DDF8C80B012802DD0120CDF8C80B97
:104FD000DDF8C80BE8720020E86044F6206304AAFC
:104FE0005946484604F0B0FA8046B8F1000F3BDD60
:104FF0000DF5BC60FFF750FB0DF5BC625946484605
:10500000DDF8FC3B04F08EF98046B8F1000FEEDDD0
:10501000607900F00F0003287DD1E0880321B1EB17
:10502000203FF9D1B4F80900B5F809108842F3D14E
:10503000207A00F00200002823DD207AC0F38100EE
:10504000C0F10400CDF8B80B3968DDF8B80B814227
:105050000BDB04F10C01DDF8B82BDDF8F80BFBF7E6
:1050600011F9DDF8B80B386009E14FF000080320B2
:105070000090594648460DF6C4320CCA04F0FAFABC
:10508000FDE0D4F80CA0386850457EDBDDF8F80B65
:10509000CDF8B40BDDF8F80BCDF8B00B20880A384A
:1050A00086B2564572DA324604F11001DDF8B00BD3
:1050B000FBF7E8F8DDF8B00B3044CDF8B00B3E60FC
:1050C0000120019000200290A6E004AD0A20288073
:1050D000002068802871CBEBCB0202EB4B12D9F891
:1050E000041001EBC20191F8C800FFF741FB0390E7
:1050F0000398CBEBCB0202EB4B12D9F8041001EB77
:10510000C20181F8C8000321039801EB0010687107
:105110004FF4005000E09AE0E88002986030287276
:10512000DDF8C40BA5F80900DDF8C80BE872002013
:10513000E86044F6206304AA5946484604F004FA9D
:105140008046B8F1000F63DD0DF5BC60FFF7A4FAEF
:105150000DF5BC6259464846DDF8FC3B04F0E2F828
:105160008046B8F1000F53DD607900F00F0003288E
:1051700034D1E0880321B1EB203F2FD1207A00F019
:10518000E00058BB2088C01E01E054E049E086B230
:10519000207A00F00100002810DD00200190072E89
:1051A00004D1207AC0F34200301A86B2324604F1AC
:1051B0000901DDF8B00BFBF765F80BE0324604F1AE
:1051C0000901DDF8B00BFBF75DF8DDF8B00B3044FA
:1051D000CDF8B00B38683044386019E000200190F9
:1051E000207A802809D1E0680090594648460DF69B
:1051F000C4320CCAFFF76EFE08E001200090594649
:1052000048460DF6C4320CCA04F034FA4FF00008D8
:10521000029880F010000290019800287FF455AFAA
:105220002DE0524604F11001DDF8B40BFBF72AF82B
:10523000C7F800A023E04FF0000803200090594673
:1052400048460DF6C4320CCA04F014FA17E0207A6E
:10525000802809D1E0680090594648460DF6C432CE
:105260000CCAFFF737FE08E0012000905946484677
:105270000DF6C4320CCA04F0FDF94FF000084046A8
:105280000DF6CC3DBDE8F08F2DE9FF4FADF6B43DF6
:1052900081468A46DDF8ECBB0DF5BC60FFF7FCF9F2
:1052A00000230DF5BC625146484604F03BF88046A9
:1052B00004A8FFF7F1F90DF5BC6504ACCAEBCA010F
:1052C00001EB4A11D9F8040000EBC100B0F8BE00B0
:1052D0001038CDF8B00BBBF1040F78DCDDF8E80B2B
:1052E000002874D10A202080002060802071CAEB41
:1052F000CA0202EB4A12D9F8041001EBC20191F87C
:10530000C800FFF735FA0746CAEBCA0101EB4A119C
:10531000D9F8040000EBC10080F8C870032000EB4E
:10532000071060714FF40050E080CBF104000C21B5
:1053300001EA800040F023002072DDF8BC0BA4F8E5
:105340000900DDF8C00BE072DDF8F00B01905A4661
:1053500004F10C000199FAF795FF44F6206304AAC2
:105360005146484604F0F0F88046B8F1000F3ADDA7
:105370002846FFF791F92A4651464846DDF8F43BA6
:1053800003F0D0FF8046B8F1000FF0DD687900F03F
:105390000F0003280ED1E8880321B1EB203F09D18B
:1053A000B5F80900B4F80910884203D1E87AE17A27
:1053B000884218D0287A80280AD1E868009051469F
:1053C00048460DF6BC320CCAFFF784FD09E00BE03D
:1053D00001200090514648460DF6BC320CCA04F03C
:1053E00049F94FF0000847E11FFA8BF600200290C0
:1053F000DDF8B00B864204DDDDF8B00B86B201208B
:10540000029006F10A002080002060802071CAEB23
:10541000CA0202EB4A12D9F8041001EBC20191F85A
:10542000C800FFF7A5F90746CAEBCA0202EB4A1209
:10543000D9F8041001EBC20181F8C870032101EB17
:10544000071060714FF40050E080DDF8E80B10B1F8
:105450003120207201E021202072DDF8BC0BA4F87D
:105460000900DDF8C00BE072DDF8E80B28B1DDF8CB
:10547000C00B012801DD0120E072C4F80CB0DDF89A
:10548000F01B0191324604F110000199FAF7FAFE7F
:10549000019830440190ABEB060B44F6206304AA5C
:1054A0005146484604F050F88046B8F1000F9ADDA6
:1054B0000DF5BC60FFF7F0F80DF5BC6251464846AB
:1054C000DDF8F43B03F02EFF8046B8F1000F8ADDD3
:1054D000687900F00F0003287DD1E8880321B1EB43
:1054E000203FF9D1B5F80900B4F809108842F3D18A
:1054F000E87AE17A8842EFD1DDF8B00BC01DCDF833
:10550000B00B002003909AE004AC1FFA8BF6002049
:10551000029001202072DDF8B00B864206DDDDF836
:10552000B00B86B20120029000202072029850B980
:10553000072E08DA0A202080C6F10700012101EBBE
:105540004000207201E0F01C20800020608020716B
:10555000CAEBCA0202EB4A12D9F8041001EBC201ED
:1055600091F8C800FFF704F90746CAEBCA0101EB3E
:105570004A11D9F8040000EBC10080F8C87003207C
:1055800000EB071060714FF40050E080217A03981F
:1055900008442072324604F109000199FAF772FEBC
:1055A000019830440190ABEB060B44F6206304AA4B
:1055B0005146484603F0C8FF8046B8F1000F3ADD77
:1055C0000DF5BC60FFF768F80DF5BC625146484622
:1055D000DDF8F43B00E037E003F0A4FE8046B8F1CC
:1055E000000F28DD687900F00F00032809D1E88852
:1055F0000321B1EB203F04D1287A00F0E0002028FD
:1056000019D0287A802809D1E86800905146484688
:105610000DF6BC320CCAFFF75DFC08E001200090DB
:10562000514648460DF6BC320CCA04F023F84FF040
:10563000000800200290039880F010000390029868
:1056400000287FF461AF17E0287A802809D1E86844
:105650000090514648460DF6BC320CCAFFF73AFCA2
:1056600008E001200090514648460DF6BC320CCAB5
:1056700004F000F84FF0000840460DF6C43DBDE8C8
:10568000F08FF0B589B004460D4616461F46182126
:1056900003A8FAF710FE01A805F0FAFEDDE9010102
:1056A000CDE90301ADF81650ADF8186000208DF873
:1056B0001A000120E16A087008208DF81B00ADF87F
:1056C0001C7003A9204604F0CAF809B0F0BD2DE90A
:1056D000FF4FADF6BC3D81468A469346DDF8F47B2C
:1056E0000DF2DC50FEF7D8FF00230DF2DC525146DC
:1056F000484603F017FE03A8FEF7CEFF0DF2DC5577
:1057000003AC04202080002060802071CAEBCA0214
:1057100002EB4A12D9F8041001EBC20191F8C8005B
:10572000FFF726F802900298CAEBCA0202EB4A126F
:10573000D9F8041001EBC20181F8C80005210298D4
:1057400001EB00106071A07920F00700401CA071EF
:10575000A07920F00800A071A07920F01000A071BD
:10576000A0796BF34710A071DDF8C80BE071DDF88C
:10577000F00B20814FF00008DDF8F81BCDF8B41BCA
:105780000DF2E650CDF8B00B0120019044F62063F5
:1057900003AA5146484603F0D7FECDF8B80BDDF812
:1057A000B80B00287CDD9BE00DF2DC50FEF774FFA7
:1057B0000DF2DC5251464846DDF8FC3B03F0B2FDE9
:1057C000CDF8B80BDDF8B80B00287EDD687900F065
:1057D0000F00052843D1A87900F0070002283ED128
:1057E000A879C0F30010C8BBA879BBEB501F36D115
:1057F000E979DDF8C80B814231D12888001F86B2D3
:1058000008EB06001FFA80F8386840450CDB32468A
:10581000DDF8B01BDDF8B40BFAF734FDDDF8B40B9E
:105820003044CDF8B40B10E03888A8EB0000301AF3
:1058300086B238881FFA80F8002E06DD3246DDF881
:10584000B01BDDF8B40BFAF71DFDA879C0F3C0005A
:1058500040BB00200190C7F8008041E0FFE7002036
:105860000190687900F00F00052821D1A87900F097
:10587000070002281CD1A879C0F30010C0B1288805
:10588000001D0DF2DC510844CDF8B00BDDF8B00B73
:10589000CDF8AC0BDDF8AC0B03885146484602E06E
:1058A00022E012E01CE0DDF8F02BFFF7EAFE08E052
:1058B00001200023009051464846DDF8F02B03F00C
:1058C000D9FE0020CDF8B80B0AE00020019004209A
:1058D0000023009051464846DDF8F02B03F0CAFE45
:1058E000019800287FF460AFDDF8B80B0DF6CC3DD1
:1058F000BDE8F08F2DE9F05F8246884693469946D1
:105900000D9D47464CF25440504430F8290086B271
:1059100007F10E0420880C3028442080208940F4B0
:1059200000402081B01EC41984F802B084F80390AE
:105930000B98A0800C98E0800A9818B145F40040BC
:10594000208100E0258106F10A01C8192A4659463E
:105950000E9B05F017FC002106F10A00284439547B
:1059600006F10A002844401C395406F10C00284472
:105970004CF25441514441F82900301FBDE8F09FDA
:105980000146002003E0002241F82020401C10289E
:10599000F9DB70470021826A1170826A517070478A
:1059A0002DE9FF4F87B004461D46DDE9149700201E
:1059B0000690059000BF049080462946FCA0FEF7A3
:1059C000C5F8C5EBC50101EB4511606800EBC100EE
:1059D00080880290C5EBC50101EB4511606800EBC2
:1059E000C10090F80461C5EBC50101EB4511606889
:1059F00000EBC100008B78B101E0701CC6B2C5EBB2
:105A0000C50101EB4511606800EBC100793000EB86
:105A1000061000680028F0D142E23146EBA0FEF704
:105A200095F803E008F1010000F0FF08B8F1070F56
:105A30000BDAC5EBC50101EB4511606800EBC10055
:105A4000713010F808000428ECD14146E3A0FEF7BD
:105A50007DF8C5EBC50101EB4511606800EBC100A5
:105A6000313000EBC8000188C5EBC50202EB4512DE
:105A7000606800EBC200793000EB06100181C5EBD5
:105A8000C50101EB4511606800EBC100313000EB4E
:105A9000C800B0F802A0059850440590069800EBA5
:105AA000CA000690C5EBC50101EB4511606800EB2B
:105AB000C100313000EBC8000088504480B2039030
:105AC0004BE008F1010000F0FF0803E008F10100DD
:105AD00000F0FF08B8F1070F0BDAC5EBC50101EBC9
